{
  "_format": "hh-sol-artifact-1",
  "contractName": "DomainsV3",
  "sourceName": "contracts/DomainsV3.sol",
  "abi": [
    {
      "inputs": [],
      "stateMutability": "payable",
      "type": "constructor"
    },
    {
      "inputs": [],
      "name": "AlreadyRegistered",
      "type": "error"
    },
    {
      "inputs": [
        {
          "internalType": "string",
          "name": "name",
          "type": "string"
        }
      ],
      "name": "InvalidName",
      "type": "error"
    },
    {
      "inputs": [],
      "name": "Unauthorized",
      "type": "error"
    },
    {
      "anonymous": false,
      "inputs": [
        {
          "indexed": true,
          "internalType": "address",
          "name": "owner",
          "type": "address"
        },
        {
          "indexed": true,
          "internalType": "address",
          "name": "approved",
          "type": "address"
        },
        {
          "indexed": true,
          "internalType": "uint256",
          "name": "tokenId",
          "type": "uint256"
        }
      ],
      "name": "Approval",
      "type": "event"
    },
    {
      "anonymous": false,
      "inputs": [
        {
          "indexed": true,
          "internalType": "address",
          "name": "owner",
          "type": "address"
        },
        {
          "indexed": true,
          "internalType": "address",
          "name": "operator",
          "type": "address"
        },
        {
          "indexed": false,
          "internalType": "bool",
          "name": "approved",
          "type": "bool"
        }
      ],
      "name": "ApprovalForAll",
      "type": "event"
    },
    {
      "anonymous": false,
      "inputs": [
        {
          "indexed": true,
          "internalType": "address",
          "name": "from",
          "type": "address"
        },
        {
          "indexed": true,
          "internalType": "address",
          "name": "to",
          "type": "address"
        },
        {
          "indexed": true,
          "internalType": "uint256",
          "name": "tokenId",
          "type": "uint256"
        }
      ],
      "name": "Transfer",
      "type": "event"
    },
    {
      "inputs": [
        {
          "internalType": "address",
          "name": "to",
          "type": "address"
        },
        {
          "internalType": "uint256",
          "name": "tokenId",
          "type": "uint256"
        }
      ],
      "name": "approve",
      "outputs": [],
      "stateMutability": "nonpayable",
      "type": "function"
    },
    {
      "inputs": [
        {
          "internalType": "address",
          "name": "owner",
          "type": "address"
        }
      ],
      "name": "balanceOf",
      "outputs": [
        {
          "internalType": "uint256",
          "name": "",
          "type": "uint256"
        }
      ],
      "stateMutability": "view",
      "type": "function"
    },
    {
      "inputs": [
        {
          "internalType": "string",
          "name": "",
          "type": "string"
        }
      ],
      "name": "domains",
      "outputs": [
        {
          "internalType": "address",
          "name": "",
          "type": "address"
        }
      ],
      "stateMutability": "view",
      "type": "function"
    },
    {
      "inputs": [
        {
          "internalType": "string",
          "name": "name",
          "type": "string"
        }
      ],
      "name": "getAddress",
      "outputs": [
        {
          "internalType": "address",
          "name": "",
          "type": "address"
        }
      ],
      "stateMutability": "view",
      "type": "function"
    },
    {
      "inputs": [],
      "name": "getAllNames",
      "outputs": [
        {
          "internalType": "string[]",
          "name": "",
          "type": "string[]"
        }
      ],
      "stateMutability": "view",
      "type": "function"
    },
    {
      "inputs": [
        {
          "internalType": "uint256",
          "name": "tokenId",
          "type": "uint256"
        }
      ],
      "name": "getApproved",
      "outputs": [
        {
          "internalType": "address",
          "name": "",
          "type": "address"
        }
      ],
      "stateMutability": "view",
      "type": "function"
    },
    {
      "inputs": [
        {
          "internalType": "string",
          "name": "name",
          "type": "string"
        }
      ],
      "name": "getRecord",
      "outputs": [
        {
          "internalType": "string",
          "name": "",
          "type": "string"
        }
      ],
      "stateMutability": "view",
      "type": "function"
    },
    {
      "inputs": [
        {
          "internalType": "address",
          "name": "owner",
          "type": "address"
        },
        {
          "internalType": "address",
          "name": "operator",
          "type": "address"
        }
      ],
      "name": "isApprovedForAll",
      "outputs": [
        {
          "internalType": "bool",
          "name": "",
          "type": "bool"
        }
      ],
      "stateMutability": "view",
      "type": "function"
    },
    {
      "inputs": [],
      "name": "isOwner",
      "outputs": [
        {
          "internalType": "bool",
          "name": "",
          "type": "bool"
        }
      ],
      "stateMutability": "view",
      "type": "function"
    },
    {
      "inputs": [],
      "name": "name",
      "outputs": [
        {
          "internalType": "string",
          "name": "",
          "type": "string"
        }
      ],
      "stateMutability": "view",
      "type": "function"
    },
    {
      "inputs": [
        {
          "internalType": "uint256",
          "name": "",
          "type": "uint256"
        }
      ],
      "name": "names",
      "outputs": [
        {
          "internalType": "string",
          "name": "",
          "type": "string"
        }
      ],
      "stateMutability": "view",
      "type": "function"
    },
    {
      "inputs": [],
      "name": "owner",
      "outputs": [
        {
          "internalType": "address payable",
          "name": "",
          "type": "address"
        }
      ],
      "stateMutability": "view",
      "type": "function"
    },
    {
      "inputs": [
        {
          "internalType": "uint256",
          "name": "tokenId",
          "type": "uint256"
        }
      ],
      "name": "ownerOf",
      "outputs": [
        {
          "internalType": "address",
          "name": "",
          "type": "address"
        }
      ],
      "stateMutability": "view",
      "type": "function"
    },
    {
      "inputs": [
        {
          "internalType": "string",
          "name": "name",
          "type": "string"
        }
      ],
      "name": "price",
      "outputs": [
        {
          "internalType": "uint256",
          "name": "",
          "type": "uint256"
        }
      ],
      "stateMutability": "pure",
      "type": "function"
    },
    {
      "inputs": [
        {
          "internalType": "string",
          "name": "",
          "type": "string"
        }
      ],
      "name": "records",
      "outputs": [
        {
          "internalType": "string",
          "name": "",
          "type": "string"
        }
      ],
      "stateMutability": "view",
      "type": "function"
    },
    {
      "inputs": [
        {
          "internalType": "string",
          "name": "name",
          "type": "string"
        }
      ],
      "name": "register",
      "outputs": [],
      "stateMutability": "payable",
      "type": "function"
    },
    {
      "inputs": [
        {
          "internalType": "address",
          "name": "from",
          "type": "address"
        },
        {
          "internalType": "address",
          "name": "to",
          "type": "address"
        },
        {
          "internalType": "uint256",
          "name": "tokenId",
          "type": "uint256"
        }
      ],
      "name": "safeTransferFrom",
      "outputs": [],
      "stateMutability": "nonpayable",
      "type": "function"
    },
    {
      "inputs": [
        {
          "internalType": "address",
          "name": "from",
          "type": "address"
        },
        {
          "internalType": "address",
          "name": "to",
          "type": "address"
        },
        {
          "internalType": "uint256",
          "name": "tokenId",
          "type": "uint256"
        },
        {
          "internalType": "bytes",
          "name": "_data",
          "type": "bytes"
        }
      ],
      "name": "safeTransferFrom",
      "outputs": [],
      "stateMutability": "nonpayable",
      "type": "function"
    },
    {
      "inputs": [
        {
          "internalType": "address",
          "name": "operator",
          "type": "address"
        },
        {
          "internalType": "bool",
          "name": "approved",
          "type": "bool"
        }
      ],
      "name": "setApprovalForAll",
      "outputs": [],
      "stateMutability": "nonpayable",
      "type": "function"
    },
    {
      "inputs": [
        {
          "internalType": "string",
          "name": "name",
          "type": "string"
        },
        {
          "internalType": "string",
          "name": "record",
          "type": "string"
        }
      ],
      "name": "setRecord",
      "outputs": [],
      "stateMutability": "nonpayable",
      "type": "function"
    },
    {
      "inputs": [
        {
          "internalType": "bytes4",
          "name": "interfaceId",
          "type": "bytes4"
        }
      ],
      "name": "supportsInterface",
      "outputs": [
        {
          "internalType": "bool",
          "name": "",
          "type": "bool"
        }
      ],
      "stateMutability": "view",
      "type": "function"
    },
    {
      "inputs": [],
      "name": "symbol",
      "outputs": [
        {
          "internalType": "string",
          "name": "",
          "type": "string"
        }
      ],
      "stateMutability": "view",
      "type": "function"
    },
    {
      "inputs": [
        {
          "internalType": "uint256",
          "name": "tokenId",
          "type": "uint256"
        }
      ],
      "name": "tokenURI",
      "outputs": [
        {
          "internalType": "string",
          "name": "",
          "type": "string"
        }
      ],
      "stateMutability": "view",
      "type": "function"
    },
    {
      "inputs": [
        {
          "internalType": "address",
          "name": "from",
          "type": "address"
        },
        {
          "internalType": "address",
          "name": "to",
          "type": "address"
        },
        {
          "internalType": "uint256",
          "name": "tokenId",
          "type": "uint256"
        }
      ],
      "name": "transferFrom",
      "outputs": [],
      "stateMutability": "nonpayable",
      "type": "function"
    },
    {
      "inputs": [
        {
          "internalType": "string",
          "name": "name",
          "type": "string"
        }
      ],
      "name": "valid",
      "outputs": [
        {
          "internalType": "bool",
          "name": "",
          "type": "bool"
        }
      ],
      "stateMutability": "pure",
      "type": "function"
    },
    {
      "inputs": [],
      "name": "withdraw",
      "outputs": [],
      "stateMutability": "nonpayable",
      "type": "function"
    }
  ],
  "bytecode": "0x6080604052604051806108a0016040528061086b815260200162004d3761086b913960089080519060200190620000389291906200016e565b506040518060400160405280600d81526020017f3c2f746578743e3c2f7376673e0000000000000000000000000000000000000081525060099080519060200190620000869291906200016e565b506040518060400160405280601181526020017f594b5456204e616d6520536572766963650000000000000000000000000000008152506040518060400160405280600381526020017f594e53000000000000000000000000000000000000000000000000000000000081525081600090805190602001906200010b9291906200016e565b508060019080519060200190620001249291906200016e565b50505033600c60006101000a81548173ffffffffffffffffffffffffffffffffffffffff021916908373ffffffffffffffffffffffffffffffffffffffff16021790555062000283565b8280546200017c906200024d565b90600052602060002090601f016020900481019282620001a05760008555620001ec565b82601f10620001bb57805160ff1916838001178555620001ec565b82800160010185558215620001ec579182015b82811115620001eb578251825591602001919060010190620001ce565b5b509050620001fb9190620001ff565b5090565b5b808211156200021a57600081600090555060010162000200565b5090565b7f4e487b7100000000000000000000000000000000000000000000000000000000600052602260045260246000fd5b600060028204905060018216806200026657607f821691505b602082108114156200027d576200027c6200021e565b5b50919050565b614aa480620002936000396000f3fe6080604052600436106101815760003560e01c80638da5cb5b116100d1578063bf40fac11161008a578063e985e9c511610064578063e985e9c5146105de578063f2c298be1461061b578063fb825e5f14610637578063fe2c61981461066257610181565b8063bf40fac11461053b578063c1880a9814610578578063c87b56dd146105a157610181565b80638da5cb5b1461042b5780638f32d59b1461045657806395d89b41146104815780639791c097146104ac578063a22cb465146104e9578063b88d4fde1461051257610181565b8063264492351161013e5780634622ab03116101185780634622ab0314610337578063541e771d146103745780636352211e146103b157806370a08231146103ee57610181565b806326449235146102ba5780633ccfd60b146102f757806342842e0e1461030e57610181565b806301ffc9a71461018657806306fdde03146101c3578063081812fc146101ee578063095ea7b31461022b57806311dd88451461025457806323b872dd14610291575b600080fd5b34801561019257600080fd5b506101ad60048036038101906101a89190612ea9565b61069f565b6040516101ba9190612ef1565b60405180910390f35b3480156101cf57600080fd5b506101d8610781565b6040516101e59190612fa5565b60405180910390f35b3480156101fa57600080fd5b5061021560048036038101906102109190612ffd565b610813565b604051610222919061306b565b60405180910390f35b34801561023757600080fd5b50610252600480360381019061024d91906130b2565b610898565b005b34801561026057600080fd5b5061027b60048036038101906102769190613157565b6109b0565b6040516102889190612fa5565b60405180910390f35b34801561029d57600080fd5b506102b860048036038101906102b391906131a4565b610a63565b005b3480156102c657600080fd5b506102e160048036038101906102dc9190613327565b610ac3565b6040516102ee919061306b565b60405180910390f35b34801561030357600080fd5b5061030c610b0c565b005b34801561031a57600080fd5b50610335600480360381019061033091906131a4565b610bd2565b005b34801561034357600080fd5b5061035e60048036038101906103599190612ffd565b610bf2565b60405161036b9190612fa5565b60405180910390f35b34801561038057600080fd5b5061039b60048036038101906103969190613327565b610c92565b6040516103a89190612fa5565b60405180910390f35b3480156103bd57600080fd5b506103d860048036038101906103d39190612ffd565b610d48565b6040516103e5919061306b565b60405180910390f35b3480156103fa57600080fd5b5061041560048036038101906104109190613370565b610dfa565b60405161042291906133ac565b60405180910390f35b34801561043757600080fd5b50610440610eb2565b60405161044d91906133e8565b60405180910390f35b34801561046257600080fd5b5061046b610ed8565b6040516104789190612ef1565b60405180910390f35b34801561048d57600080fd5b50610496610f30565b6040516104a39190612fa5565b60405180910390f35b3480156104b857600080fd5b506104d360048036038101906104ce9190613157565b610fc2565b6040516104e09190612ef1565b60405180910390f35b3480156104f557600080fd5b50610510600480360381019061050b919061342f565b611076565b005b34801561051e57600080fd5b5061053960048036038101906105349190613510565b61108c565b005b34801561054757600080fd5b50610562600480360381019061055d9190613157565b6110ee565b60405161056f919061306b565b60405180910390f35b34801561058457600080fd5b5061059f600480360381019061059a9190613593565b611139565b005b3480156105ad57600080fd5b506105c860048036038101906105c39190612ffd565b6111e7565b6040516105d59190612fa5565b60405180910390f35b3480156105ea57600080fd5b5061060560048036038101906106009190613614565b611339565b6040516106129190612ef1565b60405180910390f35b61063560048036038101906106309190613157565b6113cd565b005b34801561064357600080fd5b5061064c611743565b6040516106599190613760565b60405180910390f35b34801561066e57600080fd5b5061068960048036038101906106849190613157565b611921565b60405161069691906133ac565b60405180910390f35b60007f80ac58cd000000000000000000000000000000000000000000000000000000007bffffffffffffffffffffffffffffffffffffffffffffffffffffffff1916827bffffffffffffffffffffffffffffffffffffffffffffffffffffffff1916148061076a57507f5b5e139f000000000000000000000000000000000000000000000000000000007bffffffffffffffffffffffffffffffffffffffffffffffffffffffff1916827bffffffffffffffffffffffffffffffffffffffffffffffffffffffff1916145b8061077a5750610779826119c7565b5b9050919050565b606060008054610790906137b1565b80601f01602080910402602001604051908101604052809291908181526020018280546107bc906137b1565b80156108095780601f106107de57610100808354040283529160200191610809565b820191906000526020600020905b8154815290600101906020018083116107ec57829003601f168201915b5050505050905090565b600061081e82611a31565b61085d576040517f08c379a000000000000000000000000000000000000000000000000000000000815260040161085490613855565b60405180910390fd5b6004600083815260200190815260200160002060009054906101000a900473ffffffffffffffffffffffffffffffffffffffff169050919050565b60006108a382610d48565b90508073ffffffffffffffffffffffffffffffffffffffff168373ffffffffffffffffffffffffffffffffffffffff161415610914576040517f08c379a000000000000000000000000000000000000000000000000000000000815260040161090b906138e7565b60405180910390fd5b8073ffffffffffffffffffffffffffffffffffffffff16610933611a9d565b73ffffffffffffffffffffffffffffffffffffffff16148061096257506109618161095c611a9d565b611339565b5b6109a1576040517f08c379a000000000000000000000000000000000000000000000000000000000815260040161099890613979565b60405180910390fd5b6109ab8383611aa5565b505050565b6060600b83836040516109c49291906139c9565b908152602001604051809103902080546109dd906137b1565b80601f0160208091040260200160405190810160405280929190818152602001828054610a09906137b1565b8015610a565780601f10610a2b57610100808354040283529160200191610a56565b820191906000526020600020905b815481529060010190602001808311610a3957829003601f168201915b5050505050905092915050565b610a74610a6e611a9d565b82611b5e565b610ab3576040517f08c379a0000000000000000000000000000000000000000000000000000000008152600401610aaa90613a54565b60405180910390fd5b610abe838383611c3c565b505050565b600a818051602081018201805184825260208301602085012081835280955050505050506000915054906101000a900473ffffffffffffffffffffffffffffffffffffffff1681565b610b14610ed8565b610b1d57600080fd5b600047905060003373ffffffffffffffffffffffffffffffffffffffff1682604051610b4890613aa5565b60006040518083038185875af1925050503d8060008114610b85576040519150601f19603f3d011682016040523d82523d6000602084013e610b8a565b606091505b5050905080610bce576040517f08c379a0000000000000000000000000000000000000000000000000000000008152600401610bc590613b06565b60405180910390fd5b5050565b610bed8383836040518060200160405280600081525061108c565b505050565b600d6020528060005260406000206000915090508054610c11906137b1565b80601f0160208091040260200160405190810160405280929190818152602001828054610c3d906137b1565b8015610c8a5780601f10610c5f57610100808354040283529160200191610c8a565b820191906000526020600020905b815481529060010190602001808311610c6d57829003601f168201915b505050505081565b600b818051602081018201805184825260208301602085012081835280955050505050506000915090508054610cc7906137b1565b80601f0160208091040260200160405190810160405280929190818152602001828054610cf3906137b1565b8015610d405780601f10610d1557610100808354040283529160200191610d40565b820191906000526020600020905b815481529060010190602001808311610d2357829003601f168201915b505050505081565b6000806002600084815260200190815260200160002060009054906101000a900473ffffffffffffffffffffffffffffffffffffffff169050600073ffffffffffffffffffffffffffffffffffffffff168173ffffffffffffffffffffffffffffffffffffffff161415610df1576040517f08c379a0000000000000000000000000000000000000000000000000000000008152600401610de890613b98565b60405180910390fd5b80915050919050565b60008073ffffffffffffffffffffffffffffffffffffffff168273ffffffffffffffffffffffffffffffffffffffff161415610e6b576040517f08c379a0000000000000000000000000000000000000000000000000000000008152600401610e6290613c2a565b60405180910390fd5b600360008373ffffffffffffffffffffffffffffffffffffffff1673ffffffffffffffffffffffffffffffffffffffff168152602001908152602001600020549050919050565b600c60009054906101000a900473ffffffffffffffffffffffffffffffffffffffff1681565b6000600c60009054906101000a900473ffffffffffffffffffffffffffffffffffffffff1673ffffffffffffffffffffffffffffffffffffffff163373ffffffffffffffffffffffffffffffffffffffff1614905090565b606060018054610f3f906137b1565b80601f0160208091040260200160405190810160405280929190818152602001828054610f6b906137b1565b8015610fb85780601f10610f8d57610100808354040283529160200191610fb8565b820191906000526020600020905b815481529060010190602001808311610f9b57829003601f168201915b5050505050905090565b6000600361101384848080601f016020809104026020016040519081016040528093929190818152602001838380828437600081840152601f19601f82011690508083019250505050505050611ea3565b1015801561106e5750600a61106b84848080601f016020809104026020016040519081016040528093929190818152602001838380828437600081840152601f19601f82011690508083019250505050505050611ea3565b11155b905092915050565b611088611081611a9d565b8383612058565b5050565b61109d611097611a9d565b83611b5e565b6110dc576040517f08c379a00000000000000000000000000000000000000000000000000000000081526004016110d390613a54565b60405180910390fd5b6110e8848484846121c5565b50505050565b6000600a83836040516111029291906139c9565b908152602001604051809103902060009054906101000a900473ffffffffffffffffffffffffffffffffffffffff16905092915050565b3373ffffffffffffffffffffffffffffffffffffffff16600a85856040516111629291906139c9565b908152602001604051809103902060009054906101000a900473ffffffffffffffffffffffffffffffffffffffff1673ffffffffffffffffffffffffffffffffffffffff16146111b157600080fd5b8181600b86866040516111c59291906139c9565b908152602001604051809103902091906111e0929190612d14565b5050505050565b60606111f282611a31565b611231576040517f08c379a000000000000000000000000000000000000000000000000000000000815260040161122890613cbc565b60405180910390fd5b6000600660008481526020019081526020016000208054611251906137b1565b80601f016020809104026020016040519081016040528092919081815260200182805461127d906137b1565b80156112ca5780601f1061129f576101008083540402835291602001916112ca565b820191906000526020600020905b8154815290600101906020018083116112ad57829003601f168201915b5050505050905060006112db612221565b90506000815114156112f1578192505050611334565b60008251111561132657808260405160200161130e929190613d0d565b60405160208183030381529060405292505050611334565b61132f84612238565b925050505b919050565b6000600560008473ffffffffffffffffffffffffffffffffffffffff1673ffffffffffffffffffffffffffffffffffffffff16815260200190815260200160002060008373ffffffffffffffffffffffffffffffffffffffff1673ffffffffffffffffffffffffffffffffffffffff16815260200190815260200160002060009054906101000a900460ff16905092915050565b600073ffffffffffffffffffffffffffffffffffffffff16600a83836040516113f79291906139c9565b908152602001604051809103902060009054906101000a900473ffffffffffffffffffffffffffffffffffffffff1673ffffffffffffffffffffffffffffffffffffffff161461144657600080fd5b60006114528383611921565b905080341015611497576040517f08c379a000000000000000000000000000000000000000000000000000000000815260040161148e90613d7d565b60405180910390fd5b600083836040516020016114ac929190613de9565b6040516020818303038152906040529050600060088260096040516020016114d693929190613ea1565b604051602081830303815290604052905060006114f360076122df565b9050600061154487878080601f016020809104026020016040519081016040528093929190818152602001838380828437600081840152601f19601f82011690508083019250505050505050611ea3565b90506000611551826122ed565b90506115ba604051806060016040528060338152602001614a3c6033913989898080601f016020809104026020016040519081016040528093929190818152602001838380828437600081840152601f19601f820116905080830192505050505050508561244e565b60006115f0866115c9876124ed565b846040516020016115dc9392919061404e565b6040516020818303038152906040526124ed565b905060008160405160200161160591906140f7565b604051602081830303815290604052905061163760405180606001604052806039815260200161498a60399139612685565b6116766040518060400160405280600e81526020017f46696e616c20746f6b656e5552490000000000000000000000000000000000008152508261271e565b6116976040518060600160405280603981526020016149c360399139612685565b6116a133866127ba565b6116ab85826127d8565b33600a8b8b6040516116be9291906139c9565b908152602001604051809103902060006101000a81548173ffffffffffffffffffffffffffffffffffffffff021916908373ffffffffffffffffffffffffffffffffffffffff1602179055508989600d6000888152602001908152602001600020919061172c929190612d14565b50611737600761284c565b50505050505050505050565b60606117836040518060400160405280601f81526020017f47657474696e6720616c6c206e616d65732066726f6d20636f6e747261637400815250612685565b600061178f60076122df565b67ffffffffffffffff8111156117a8576117a76131fc565b5b6040519080825280602002602001820160405280156117db57816020015b60608152602001906001900390816117c65790505b50905060005b6117eb60076122df565b81101561191957600d60008281526020019081526020016000208054611810906137b1565b80601f016020809104026020016040519081016040528092919081815260200182805461183c906137b1565b80156118895780601f1061185e57610100808354040283529160200191611889565b820191906000526020600020905b81548152906001019060200180831161186c57829003601f168201915b50505050508282815181106118a1576118a0614119565b5b60200260200101819052506119066040518060400160405280601781526020017f4e616d6520666f7220746f6b656e202564206973202573000000000000000000815250828484815181106118f9576118f8614119565b5b6020026020010151612862565b808061191190614177565b9150506117e1565b508091505090565b60008061197184848080601f016020809104026020016040519081016040528093929190818152602001838380828437600081840152601f19601f82011690508083019250505050505050611ea3565b90506000811161198057600080fd5b600381141561199a576706f05b59d3b200009150506119c1565b60048114156119b457670429d069189e00009150506119c1565b67016345785d8a00009150505b92915050565b60007f01ffc9a7000000000000000000000000000000000000000000000000000000007bffffffffffffffffffffffffffffffffffffffffffffffffffffffff1916827bffffffffffffffffffffffffffffffffffffffffffffffffffffffff1916149050919050565b60008073ffffffffffffffffffffffffffffffffffffffff166002600084815260200190815260200160002060009054906101000a900473ffffffffffffffffffffffffffffffffffffffff1673ffffffffffffffffffffffffffffffffffffffff1614159050919050565b600033905090565b816004600083815260200190815260200160002060006101000a81548173ffffffffffffffffffffffffffffffffffffffff021916908373ffffffffffffffffffffffffffffffffffffffff160217905550808273ffffffffffffffffffffffffffffffffffffffff16611b1883610d48565b73ffffffffffffffffffffffffffffffffffffffff167f8c5be1e5ebec7d5bd14f71427d1e84f3dd0314c0f7b2291e5b200ac8c7c3b92560405160405180910390a45050565b6000611b6982611a31565b611ba8576040517f08c379a0000000000000000000000000000000000000000000000000000000008152600401611b9f90614232565b60405180910390fd5b6000611bb383610d48565b90508073ffffffffffffffffffffffffffffffffffffffff168473ffffffffffffffffffffffffffffffffffffffff161480611c2257508373ffffffffffffffffffffffffffffffffffffffff16611c0a84610813565b73ffffffffffffffffffffffffffffffffffffffff16145b80611c335750611c328185611339565b5b91505092915050565b8273ffffffffffffffffffffffffffffffffffffffff16611c5c82610d48565b73ffffffffffffffffffffffffffffffffffffffff1614611cb2576040517f08c379a0000000000000000000000000000000000000000000000000000000008152600401611ca9906142c4565b60405180910390fd5b600073ffffffffffffffffffffffffffffffffffffffff168273ffffffffffffffffffffffffffffffffffffffff161415611d22576040517f08c379a0000000000000000000000000000000000000000000000000000000008152600401611d1990614356565b60405180910390fd5b611d2d838383612901565b611d38600082611aa5565b6001600360008573ffffffffffffffffffffffffffffffffffffffff1673ffffffffffffffffffffffffffffffffffffffff1681526020019081526020016000206000828254611d889190614376565b925050819055506001600360008473ffffffffffffffffffffffffffffffffffffffff1673ffffffffffffffffffffffffffffffffffffffff1681526020019081526020016000206000828254611ddf91906143aa565b92505081905550816002600083815260200190815260200160002060006101000a81548173ffffffffffffffffffffffffffffffffffffffff021916908373ffffffffffffffffffffffffffffffffffffffff160217905550808273ffffffffffffffffffffffffffffffffffffffff168473ffffffffffffffffffffffffffffffffffffffff167fddf252ad1be2c89b69c2b068fc378daa952ba7f163c4a11628f55a4df523b3ef60405160405180910390a4611e9e838383612906565b505050565b60008060008084519050600092505b8082101561204d576000858381518110611ecf57611ece614119565b5b602001015160f81c60f81b9050608060f81b817effffffffffffffffffffffffffffffffffffffffffffffffffffffffffffff19161015611f1e57600183611f1791906143aa565b9250612039565b60e060f81b817effffffffffffffffffffffffffffffffffffffffffffffffffffffffffffff19161015611f6057600283611f5991906143aa565b9250612038565b60f060f81b817effffffffffffffffffffffffffffffffffffffffffffffffffffffffffffff19161015611fa257600383611f9b91906143aa565b9250612037565b60f8801b817effffffffffffffffffffffffffffffffffffffffffffffffffffffffffffff19161015611fe357600483611fdc91906143aa565b9250612036565b60fc60f81b817effffffffffffffffffffffffffffffffffffffffffffffffffffffffffffff191610156120255760058361201e91906143aa565b9250612035565b60068361203291906143aa565b92505b5b5b5b5b50828061204590614177565b935050611eb2565b829350505050919050565b8173ffffffffffffffffffffffffffffffffffffffff168373ffffffffffffffffffffffffffffffffffffffff1614156120c7576040517f08c379a00000000000000000000000000000000000000000000000000000000081526004016120be9061444c565b60405180910390fd5b80600560008573ffffffffffffffffffffffffffffffffffffffff1673ffffffffffffffffffffffffffffffffffffffff16815260200190815260200160002060008473ffffffffffffffffffffffffffffffffffffffff1673ffffffffffffffffffffffffffffffffffffffff16815260200190815260200160002060006101000a81548160ff0219169083151502179055508173ffffffffffffffffffffffffffffffffffffffff168373ffffffffffffffffffffffffffffffffffffffff167f17307eab39ab6107e8899845ad3d59bd9653f200f220920489ca2b5937696c31836040516121b89190612ef1565b60405180910390a3505050565b6121d0848484611c3c565b6121dc8484848461290b565b61221b576040517f08c379a0000000000000000000000000000000000000000000000000000000008152600401612212906144de565b60405180910390fd5b50505050565b606060405180602001604052806000815250905090565b606061224382611a31565b612282576040517f08c379a000000000000000000000000000000000000000000000000000000000815260040161227990614570565b60405180910390fd5b600061228c612221565b905060008151116122ac57604051806020016040528060008152506122d7565b806122b6846122ed565b6040516020016122c7929190613d0d565b6040516020818303038152906040525b915050919050565b600081600001549050919050565b60606000821415612335576040518060400160405280600181526020017f30000000000000000000000000000000000000000000000000000000000000008152509050612449565b600082905060005b6000821461236757808061235090614177565b915050600a8261236091906145bf565b915061233d565b60008167ffffffffffffffff811115612383576123826131fc565b5b6040519080825280601f01601f1916602001820160405280156123b55781602001600182028036833780820191505090505b5090505b60008514612442576001826123ce9190614376565b9150600a856123dd91906145f0565b60306123e991906143aa565b60f81b8183815181106123ff576123fe614119565b5b60200101907effffffffffffffffffffffffffffffffffffffffffffffffffffffffffffff1916908160001a905350600a8561243b91906145bf565b94506123b9565b8093505050505b919050565b6124e883838360405160240161246693929190614621565b6040516020818303038152906040527ff362ca59000000000000000000000000000000000000000000000000000000007bffffffffffffffffffffffffffffffffffffffffffffffffffffffff19166020820180517bffffffffffffffffffffffffffffffffffffffffffffffffffffffff8381831617835250505050612a93565b505050565b606060008251905060008114156125165760405180602001604052806000815250915050612680565b6000600360028361252791906143aa565b61253191906145bf565b600461253d9190614666565b9050600060208261254e91906143aa565b67ffffffffffffffff811115612567576125666131fc565b5b6040519080825280601f01601f1916602001820160405280156125995781602001600182028036833780820191505090505b50905060006040518060600160405280604081526020016149fc604091399050600181016020830160005b8681101561263d5760038101905062ffffff818a015116603f8160121c168401518060081b905060ff603f83600c1c1686015116810190508060081b905060ff603f8360061c1686015116810190508060081b905060ff603f831686015116810190508060e01b905080845260048401935050506125c4565b506003860660018114612657576002811461266757612672565b613d3d60f01b6002830352612672565b603d60f81b60018303525b508484525050819450505050505b919050565b61271b816040516024016126999190612fa5565b6040516020818303038152906040527f41304fac000000000000000000000000000000000000000000000000000000007bffffffffffffffffffffffffffffffffffffffffffffffffffffffff19166020820180517bffffffffffffffffffffffffffffffffffffffffffffffffffffffff8381831617835250505050612a93565b50565b6127b682826040516024016127349291906146c0565b6040516020818303038152906040527f4b5c4277000000000000000000000000000000000000000000000000000000007bffffffffffffffffffffffffffffffffffffffffffffffffffffffff19166020820180517bffffffffffffffffffffffffffffffffffffffffffffffffffffffff8381831617835250505050612a93565b5050565b6127d4828260405180602001604052806000815250612abc565b5050565b6127e182611a31565b612820576040517f08c379a000000000000000000000000000000000000000000000000000000000815260040161281790614769565b60405180910390fd5b80600660008481526020019081526020016000209080519060200190612847929190612d9a565b505050565b6001816000016000828254019250508190555050565b6128fc83838360405160240161287a93929190614789565b6040516020818303038152906040527fa3f5c739000000000000000000000000000000000000000000000000000000007bffffffffffffffffffffffffffffffffffffffffffffffffffffffff19166020820180517bffffffffffffffffffffffffffffffffffffffffffffffffffffffff8381831617835250505050612a93565b505050565b505050565b505050565b600061292c8473ffffffffffffffffffffffffffffffffffffffff16612b17565b15612a86578373ffffffffffffffffffffffffffffffffffffffff1663150b7a02612955611a9d565b8786866040518563ffffffff1660e01b81526004016129779493929190614823565b6020604051808303816000875af19250505080156129b357506040513d601f19601f820116820180604052508101906129b09190614884565b60015b612a36573d80600081146129e3576040519150601f19603f3d011682016040523d82523d6000602084013e6129e8565b606091505b50600081511415612a2e576040517f08c379a0000000000000000000000000000000000000000000000000000000008152600401612a25906144de565b60405180910390fd5b805181602001fd5b63150b7a0260e01b7bffffffffffffffffffffffffffffffffffffffffffffffffffffffff1916817bffffffffffffffffffffffffffffffffffffffffffffffffffffffff191614915050612a8b565b600190505b949350505050565b60008151905060006a636f6e736f6c652e6c6f679050602083016000808483855afa5050505050565b612ac68383612b3a565b612ad3600084848461290b565b612b12576040517f08c379a0000000000000000000000000000000000000000000000000000000008152600401612b09906144de565b60405180910390fd5b505050565b6000808273ffffffffffffffffffffffffffffffffffffffff163b119050919050565b600073ffffffffffffffffffffffffffffffffffffffff168273ffffffffffffffffffffffffffffffffffffffff161415612baa576040517f08c379a0000000000000000000000000000000000000000000000000000000008152600401612ba1906148fd565b60405180910390fd5b612bb381611a31565b15612bf3576040517f08c379a0000000000000000000000000000000000000000000000000000000008152600401612bea90614969565b60405180910390fd5b612bff60008383612901565b6001600360008473ffffffffffffffffffffffffffffffffffffffff1673ffffffffffffffffffffffffffffffffffffffff1681526020019081526020016000206000828254612c4f91906143aa565b92505081905550816002600083815260200190815260200160002060006101000a81548173ffffffffffffffffffffffffffffffffffffffff021916908373ffffffffffffffffffffffffffffffffffffffff160217905550808273ffffffffffffffffffffffffffffffffffffffff16600073ffffffffffffffffffffffffffffffffffffffff167fddf252ad1be2c89b69c2b068fc378daa952ba7f163c4a11628f55a4df523b3ef60405160405180910390a4612d1060008383612906565b5050565b828054612d20906137b1565b90600052602060002090601f016020900481019282612d425760008555612d89565b82601f10612d5b57803560ff1916838001178555612d89565b82800160010185558215612d89579182015b82811115612d88578235825591602001919060010190612d6d565b5b509050612d969190612e20565b5090565b828054612da6906137b1565b90600052602060002090601f016020900481019282612dc85760008555612e0f565b82601f10612de157805160ff1916838001178555612e0f565b82800160010185558215612e0f579182015b82811115612e0e578251825591602001919060010190612df3565b5b509050612e1c9190612e20565b5090565b5b80821115612e39576000816000905550600101612e21565b5090565b6000604051905090565b600080fd5b600080fd5b60007fffffffff0000000000000000000000000000000000000000000000000000000082169050919050565b612e8681612e51565b8114612e9157600080fd5b50565b600081359050612ea381612e7d565b92915050565b600060208284031215612ebf57612ebe612e47565b5b6000612ecd84828501612e94565b91505092915050565b60008115159050919050565b612eeb81612ed6565b82525050565b6000602082019050612f066000830184612ee2565b92915050565b600081519050919050565b600082825260208201905092915050565b60005b83811015612f46578082015181840152602081019050612f2b565b83811115612f55576000848401525b50505050565b6000601f19601f8301169050919050565b6000612f7782612f0c565b612f818185612f17565b9350612f91818560208601612f28565b612f9a81612f5b565b840191505092915050565b60006020820190508181036000830152612fbf8184612f6c565b905092915050565b6000819050919050565b612fda81612fc7565b8114612fe557600080fd5b50565b600081359050612ff781612fd1565b92915050565b60006020828403121561301357613012612e47565b5b600061302184828501612fe8565b91505092915050565b600073ffffffffffffffffffffffffffffffffffffffff82169050919050565b60006130558261302a565b9050919050565b6130658161304a565b82525050565b6000602082019050613080600083018461305c565b92915050565b61308f8161304a565b811461309a57600080fd5b50565b6000813590506130ac81613086565b92915050565b600080604083850312156130c9576130c8612e47565b5b60006130d78582860161309d565b92505060206130e885828601612fe8565b9150509250929050565b600080fd5b600080fd5b600080fd5b60008083601f840112613117576131166130f2565b5b8235905067ffffffffffffffff811115613134576131336130f7565b5b6020830191508360018202830111156131505761314f6130fc565b5b9250929050565b6000806020838503121561316e5761316d612e47565b5b600083013567ffffffffffffffff81111561318c5761318b612e4c565b5b61319885828601613101565b92509250509250929050565b6000806000606084860312156131bd576131bc612e47565b5b60006131cb8682870161309d565b93505060206131dc8682870161309d565b92505060406131ed86828701612fe8565b9150509250925092565b600080fd5b7f4e487b7100000000000000000000000000000000000000000000000000000000600052604160045260246000fd5b61323482612f5b565b810181811067ffffffffffffffff82111715613253576132526131fc565b5b80604052505050565b6000613266612e3d565b9050613272828261322b565b919050565b600067ffffffffffffffff821115613292576132916131fc565b5b61329b82612f5b565b9050602081019050919050565b82818337600083830152505050565b60006132ca6132c584613277565b61325c565b9050828152602081018484840111156132e6576132e56131f7565b5b6132f18482856132a8565b509392505050565b600082601f83011261330e5761330d6130f2565b5b813561331e8482602086016132b7565b91505092915050565b60006020828403121561333d5761333c612e47565b5b600082013567ffffffffffffffff81111561335b5761335a612e4c565b5b613367848285016132f9565b91505092915050565b60006020828403121561338657613385612e47565b5b60006133948482850161309d565b91505092915050565b6133a681612fc7565b82525050565b60006020820190506133c1600083018461339d565b92915050565b60006133d28261302a565b9050919050565b6133e2816133c7565b82525050565b60006020820190506133fd60008301846133d9565b92915050565b61340c81612ed6565b811461341757600080fd5b50565b60008135905061342981613403565b92915050565b6000806040838503121561344657613445612e47565b5b60006134548582860161309d565b92505060206134658582860161341a565b9150509250929050565b600067ffffffffffffffff82111561348a576134896131fc565b5b61349382612f5b565b9050602081019050919050565b60006134b36134ae8461346f565b61325c565b9050828152602081018484840111156134cf576134ce6131f7565b5b6134da8482856132a8565b509392505050565b600082601f8301126134f7576134f66130f2565b5b81356135078482602086016134a0565b91505092915050565b6000806000806080858703121561352a57613529612e47565b5b60006135388782880161309d565b94505060206135498782880161309d565b935050604061355a87828801612fe8565b925050606085013567ffffffffffffffff81111561357b5761357a612e4c565b5b613587878288016134e2565b91505092959194509250565b600080600080604085870312156135ad576135ac612e47565b5b600085013567ffffffffffffffff8111156135cb576135ca612e4c565b5b6135d787828801613101565b9450945050602085013567ffffffffffffffff8111156135fa576135f9612e4c565b5b61360687828801613101565b925092505092959194509250565b6000806040838503121561362b5761362a612e47565b5b60006136398582860161309d565b925050602061364a8582860161309d565b9150509250929050565b600081519050919050565b600082825260208201905092915050565b6000819050602082019050919050565b600082825260208201905092915050565b600061369c82612f0c565b6136a68185613680565b93506136b6818560208601612f28565b6136bf81612f5b565b840191505092915050565b60006136d68383613691565b905092915050565b6000602082019050919050565b60006136f682613654565b613700818561365f565b93508360208202850161371285613670565b8060005b8581101561374e578484038952815161372f85826136ca565b945061373a836136de565b925060208a01995050600181019050613716565b50829750879550505050505092915050565b6000602082019050818103600083015261377a81846136eb565b905092915050565b7f4e487b7100000000000000000000000000000000000000000000000000000000600052602260045260246000fd5b600060028204905060018216806137c957607f821691505b602082108114156137dd576137dc613782565b5b50919050565b7f4552433732313a20617070726f76656420717565727920666f72206e6f6e657860008201527f697374656e7420746f6b656e0000000000000000000000000000000000000000602082015250565b600061383f602c83612f17565b915061384a826137e3565b604082019050919050565b6000602082019050818103600083015261386e81613832565b9050919050565b7f4552433732313a20617070726f76616c20746f2063757272656e74206f776e6560008201527f7200000000000000000000000000000000000000000000000000000000000000602082015250565b60006138d1602183612f17565b91506138dc82613875565b604082019050919050565b60006020820190508181036000830152613900816138c4565b9050919050565b7f4552433732313a20617070726f76652063616c6c6572206973206e6f74206f7760008201527f6e6572206e6f7220617070726f76656420666f7220616c6c0000000000000000602082015250565b6000613963603883612f17565b915061396e82613907565b604082019050919050565b6000602082019050818103600083015261399281613956565b9050919050565b600081905092915050565b60006139b08385613999565b93506139bd8385846132a8565b82840190509392505050565b60006139d68284866139a4565b91508190509392505050565b7f4552433732313a207472616e736665722063616c6c6572206973206e6f74206f60008201527f776e6572206e6f7220617070726f766564000000000000000000000000000000602082015250565b6000613a3e603183612f17565b9150613a49826139e2565b604082019050919050565b60006020820190508181036000830152613a6d81613a31565b9050919050565b600081905092915050565b50565b6000613a8f600083613a74565b9150613a9a82613a7f565b600082019050919050565b6000613ab082613a82565b9150819050919050565b7f4661696c656420746f207769746864726177204d617469630000000000000000600082015250565b6000613af0601883612f17565b9150613afb82613aba565b602082019050919050565b60006020820190508181036000830152613b1f81613ae3565b9050919050565b7f4552433732313a206f776e657220717565727920666f72206e6f6e657869737460008201527f656e7420746f6b656e0000000000000000000000000000000000000000000000602082015250565b6000613b82602983612f17565b9150613b8d82613b26565b604082019050919050565b60006020820190508181036000830152613bb181613b75565b9050919050565b7f4552433732313a2062616c616e636520717565727920666f7220746865207a6560008201527f726f206164647265737300000000000000000000000000000000000000000000602082015250565b6000613c14602a83612f17565b9150613c1f82613bb8565b604082019050919050565b60006020820190508181036000830152613c4381613c07565b9050919050565b7f45524337323155524953746f726167653a2055524920717565727920666f722060008201527f6e6f6e6578697374656e7420746f6b656e000000000000000000000000000000602082015250565b6000613ca6603183612f17565b9150613cb182613c4a565b604082019050919050565b60006020820190508181036000830152613cd581613c99565b9050919050565b6000613ce782612f0c565b613cf18185613999565b9350613d01818560208601612f28565b80840191505092915050565b6000613d198285613cdc565b9150613d258284613cdc565b91508190509392505050565b7f4e6f7420656e6f756768204d4154494320706169642e00000000000000000000600082015250565b6000613d67601683612f17565b9150613d7282613d31565b602082019050919050565b60006020820190508181036000830152613d9681613d5a565b9050919050565b7f2e796b7476000000000000000000000000000000000000000000000000000000600082015250565b6000613dd3600583613999565b9150613dde82613d9d565b600582019050919050565b6000613df68284866139a4565b9150613e0182613dc6565b91508190509392505050565b60008190508160005260206000209050919050565b60008154613e2f816137b1565b613e398186613999565b94506001821660008114613e545760018114613e6557613e98565b60ff19831686528186019350613e98565b613e6e85613e0d565b60005b83811015613e9057815481890152600182019150602081019050613e71565b838801955050505b50505092915050565b6000613ead8286613e22565b9150613eb98285613cdc565b9150613ec58284613e22565b9150819050949350505050565b7f7b226e616d65223a202200000000000000000000000000000000000000000000600082015250565b6000613f08600a83613999565b9150613f1382613ed2565b600a82019050919050565b7f222c20226465736372697074696f6e223a20224120646f6d61696e206f6e207460008201527f686520594b5456206e616d652073657276696365222c2022696d616765223a2060208201527f22646174613a696d6167652f7376672b786d6c3b6261736536342c0000000000604082015250565b6000613fa0605b83613999565b9150613fab82613f1e565b605b82019050919050565b7f222c226c656e677468223a220000000000000000000000000000000000000000600082015250565b6000613fec600c83613999565b9150613ff782613fb6565b600c82019050919050565b7f227d000000000000000000000000000000000000000000000000000000000000600082015250565b6000614038600283613999565b915061404382614002565b600282019050919050565b600061405982613efb565b91506140658286613cdc565b915061407082613f93565b915061407c8285613cdc565b915061408782613fdf565b91506140938284613cdc565b915061409e8261402b565b9150819050949350505050565b7f646174613a6170706c69636174696f6e2f6a736f6e3b6261736536342c000000600082015250565b60006140e1601d83613999565b91506140ec826140ab565b601d82019050919050565b6000614102826140d4565b915061410e8284613cdc565b915081905092915050565b7f4e487b7100000000000000000000000000000000000000000000000000000000600052603260045260246000fd5b7f4e487b7100000000000000000000000000000000000000000000000000000000600052601160045260246000fd5b600061418282612fc7565b91507fffffffffffffffffffffffffffffffffffffffffffffffffffffffffffffffff8214156141b5576141b4614148565b5b600182019050919050565b7f4552433732313a206f70657261746f7220717565727920666f72206e6f6e657860008201527f697374656e7420746f6b656e0000000000000000000000000000000000000000602082015250565b600061421c602c83612f17565b9150614227826141c0565b604082019050919050565b6000602082019050818103600083015261424b8161420f565b9050919050565b7f4552433732313a207472616e736665722066726f6d20696e636f72726563742060008201527f6f776e6572000000000000000000000000000000000000000000000000000000602082015250565b60006142ae602583612f17565b91506142b982614252565b604082019050919050565b600060208201905081810360008301526142dd816142a1565b9050919050565b7f4552433732313a207472616e7366657220746f20746865207a65726f2061646460008201527f7265737300000000000000000000000000000000000000000000000000000000602082015250565b6000614340602483612f17565b915061434b826142e4565b604082019050919050565b6000602082019050818103600083015261436f81614333565b9050919050565b600061438182612fc7565b915061438c83612fc7565b92508282101561439f5761439e614148565b5b828203905092915050565b60006143b582612fc7565b91506143c083612fc7565b9250827fffffffffffffffffffffffffffffffffffffffffffffffffffffffffffffffff038211156143f5576143f4614148565b5b828201905092915050565b7f4552433732313a20617070726f766520746f2063616c6c657200000000000000600082015250565b6000614436601983612f17565b915061444182614400565b602082019050919050565b6000602082019050818103600083015261446581614429565b9050919050565b7f4552433732313a207472616e7366657220746f206e6f6e20455243373231526560008201527f63656976657220696d706c656d656e7465720000000000000000000000000000602082015250565b60006144c8603283612f17565b91506144d38261446c565b604082019050919050565b600060208201905081810360008301526144f7816144bb565b9050919050565b7f4552433732314d657461646174613a2055524920717565727920666f72206e6f60008201527f6e6578697374656e7420746f6b656e0000000000000000000000000000000000602082015250565b600061455a602f83612f17565b9150614565826144fe565b604082019050919050565b600060208201905081810360008301526145898161454d565b9050919050565b7f4e487b7100000000000000000000000000000000000000000000000000000000600052601260045260246000fd5b60006145ca82612fc7565b91506145d583612fc7565b9250826145e5576145e4614590565b5b828204905092915050565b60006145fb82612fc7565b915061460683612fc7565b92508261461657614615614590565b5b828206905092915050565b6000606082019050818103600083015261463b8186612f6c565b9050818103602083015261464f8185612f6c565b905061465e604083018461339d565b949350505050565b600061467182612fc7565b915061467c83612fc7565b9250817fffffffffffffffffffffffffffffffffffffffffffffffffffffffffffffffff04831182151516156146b5576146b4614148565b5b828202905092915050565b600060408201905081810360008301526146da8185612f6c565b905081810360208301526146ee8184612f6c565b90509392505050565b7f45524337323155524953746f726167653a2055524920736574206f66206e6f6e60008201527f6578697374656e7420746f6b656e000000000000000000000000000000000000602082015250565b6000614753602e83612f17565b915061475e826146f7565b604082019050919050565b6000602082019050818103600083015261478281614746565b9050919050565b600060608201905081810360008301526147a38186612f6c565b90506147b2602083018561339d565b81810360408301526147c48184612f6c565b9050949350505050565b600081519050919050565b600082825260208201905092915050565b60006147f5826147ce565b6147ff81856147d9565b935061480f818560208601612f28565b61481881612f5b565b840191505092915050565b6000608082019050614838600083018761305c565b614845602083018661305c565b614852604083018561339d565b818103606083015261486481846147ea565b905095945050505050565b60008151905061487e81612e7d565b92915050565b60006020828403121561489a57614899612e47565b5b60006148a88482850161486f565b91505092915050565b7f4552433732313a206d696e7420746f20746865207a65726f2061646472657373600082015250565b60006148e7602083612f17565b91506148f2826148b1565b602082019050919050565b60006020820190508181036000830152614916816148da565b9050919050565b7f4552433732313a20746f6b656e20616c7265616479206d696e74656400000000600082015250565b6000614953601c83612f17565b915061495e8261491d565b602082019050919050565b6000602082019050818103600083015261498281614946565b905091905056fe0a2d2d2d2d2d2d2d2d2d2d2d2d2d2d2d2d2d2d2d2d2d2d2d2d2d2d2d2d2d2d2d2d2d2d2d2d2d2d2d2d2d2d2d2d2d2d2d2d2d2d2d2d2d2d2d2d2d2d2d2d2d2d2d2d2d2d2d2d2d2d2d2d2d2d2d2d2d2d2d2d2d2d2d2d2d2d2d2d2d2d2d2d2d2d2d2d2d2d2d2d2d2d2d2d2d2d2d2d2d2d2d2d0a4142434445464748494a4b4c4d4e4f505152535455565758595a6162636465666768696a6b6c6d6e6f707172737475767778797a303132333435363738392b2f5265676973746572696e672025732e796b7476206f6e2074686520636f6e7472616374207769746820746f6b656e4944202564a26469706673582212203fec263edd5fdef042863a622631233ce3b07dc5b1b7c7132c2eca241788bff064736f6c634300080a00333c73766720786d6c6e733d22687474703a2f2f7777772e77332e6f72672f323030302f737667222077696474683d2232373022206865696768743d22323730222066696c6c3d226e6f6e65223e3c706174682066696c6c3d2275726c282342292220643d224d302030683237307632373048307a222f3e3c646566733e3c66696c7465722069643d22412220636f6c6f722d696e746572706f6c6174696f6e2d66696c746572733d2273524742222066696c746572556e6974733d227573657253706163654f6e55736522206865696768743d22323730222077696474683d22323730223e3c666544726f70536861646f772064783d2230222064793d22312220737464446576696174696f6e3d22322220666c6f6f642d6f7061636974793d222e323235222077696474683d223230302522206865696768743d2232303025222f3e3c2f66696c7465723e3c2f646566733e3c7061746820643d224d37322e3836332034322e393439632d2e3636382d2e3338372d312e3432362d2e35392d322e3139372d2e3539732d312e3532392e3230342d322e3139372e35396c2d31302e30383120362e3033322d362e383520332e3933342d31302e30383120362e303332632d2e3636382e3338372d312e3432362e35392d322e3139372e3539732d312e3532392d2e3230342d322e3139372d2e35396c2d382e3031332d342e37323161342e353220342e35322030203020312d312e3538392d312e363136632d2e3338342d2e3636352d2e3539342d312e3431382d2e3630382d322e313837762d392e3331632d2e3031332d2e3737352e3138352d312e3533382e3537322d322e32303861342e323520342e323520302030203120312e3632352d312e3539356c372e3838342d342e3539632e3636382d2e33383720312e3432362d2e353920322e3139372d2e353973312e3532392e32303420322e3139372e35396c372e38383420342e353961342e353220342e353220302030203120312e35383920312e363136632e3338342e3636352e35393420312e3431382e36303820322e31383776362e3033326c362e38352d342e303635762d362e303332632e3031332d2e3737352d2e3138352d312e3533382d2e3537322d322e32303861342e323520342e32352030203020302d312e3632352d312e3539354c34312e3435362032342e3539632d2e3636382d2e3338372d312e3432362d2e35392d322e3139372d2e3539732d312e3532392e3230342d322e3139372e35396c2d31342e38363420382e36353561342e323520342e32352030203020302d312e36323520312e353935632d2e3338372e36372d2e35383520312e3433342d2e35373220322e3230387631372e343431632d2e3031332e3737352e31383520312e3533382e35373220322e32303861342e323520342e323520302030203020312e36323520312e3539356c31342e38363420382e363535632e3636382e33383720312e3432362e353920322e3139372e353973312e3532392d2e32303420322e3139372d2e35396c31302e3038312d352e39303120362e38352d342e3036352031302e3038312d352e393031632e3636382d2e33383720312e3432362d2e353920322e3139372d2e353973312e3532392e32303420322e3139372e35396c372e38383420342e353961342e353220342e353220302030203120312e35383920312e363136632e3338342e3636352e35393420312e3431382e36303820322e31383776392e333131632e3031332e3737352d2e31383520312e3533382d2e35373220322e32303861342e323520342e32352030203020312d312e36323520312e3539356c2d372e38383420342e373231632d2e3636382e3338372d312e3432362e35392d322e3139372e3539732d312e3532392d2e3230342d322e3139372d2e35396c2d372e3838342d342e353961342e353220342e35322030203020312d312e3538392d312e363136632d2e3338352d2e3636352d2e3539342d312e3431382d2e3630382d322e313837762d362e3033326c2d362e383520342e30363576362e303332632d2e3031332e3737352e31383520312e3533382e35373220322e32303861342e323520342e323520302030203020312e36323520312e3539356c31342e38363420382e363535632e3636382e33383720312e3432362e353920322e3139372e353973312e3532392d2e32303420322e3139372d2e35396c31342e3836342d382e363535632e3635372d2e33393420312e3230342d2e393520312e3538392d312e363136732e3539342d312e3431382e3630392d322e3138375635352e353338632e3031332d2e3737352d2e3138352d312e3533382d2e3537322d322e32303861342e323520342e32352030203020302d312e3632352d312e3539356c2d31342e3939332d382e3738367a222066696c6c3d2223666666222f3e3c646566733e3c6c696e6561724772616469656e742069643d2242222078313d2230222079313d2230222078323d22323730222079323d2232373022206772616469656e74556e6974733d227573657253706163654f6e557365223e3c73746f702073746f702d636f6c6f723d2223666639343832222f3e3c73746f70206f66667365743d2231222073746f702d636f6c6f723d2223376437376666222073746f702d6f7061636974793d222e3939222f3e3c2f6c696e6561724772616469656e743e3c2f646566733e3c7465787420783d2233322e352220793d223233312220666f6e742d73697a653d223237222066696c6c3d2223666666222066696c7465723d2275726c282341292220666f6e742d66616d696c793d22506c7573204a616b617274612053616e732c44656a6156752053616e732c4e6f746f20436f6c6f7220456d6f6a692c4170706c6520436f6c6f7220456d6f6a692c73616e732d73657269662220666f6e742d7765696768743d22626f6c64223e",
  "linkReferences": {},
  "deployedLinkReferences": {}
}